:1000000009C00EC00DC00CC00BC00AC009C008C09A
:1000100007C006C011241FBECFE9CDBF26D030C017
:10002000EFCFB499FECF90E080E0B49908950196A7
:10003000FCCFC498BC9ABC9ABC9ABC9ABC9ABC9A95
:10004000BC9ABC9808959B0148E050E0BC0162272F
:100050009695879560FF03C06CE08627806836958B
:1000600027954150510991F7089580E888B9F8948F
:10007000D8DF079710F0DDDFFBCF90E080E0089538
:04008000F894FFCF22
:00000001FF
