:100000000C945D000C9485000C9485000C94850084
:100010000C9485000C9485000C9485000C9485004C
:100020000C9485000C9485000C9485000C9485003C
:100030000C9485000C9485000C9485000C9485002C
:100040000C94E2030C9485000C94B0030C948A0386
:100050000C9485000C9485000C9485000C9485000C
:100060000C9485000C9485000000000025002800F9
:100070002B0000000008000201000003040700003C
:1000800000000000000000000000240027002A00FB
:10009000010204081020408001020408102001021F
:1000A00004081020040404040404040402020202EC
:1000B00002020303030303036F0811241FBECFEFE3
:1000C000D8E0DEBFCDBF11E0A0E0B1E0E2E5F1E1B4
:1000D00002C005900D92AC31B107D9F722E0ACE136
:1000E000B1E001C01D92A63EB207E1F710E0CDE5F8
:1000F000D0E004C02197FE010E949C08CC35D107B6
:10010000C9F70E9441040C94A7080C940000E091E8
:100110004902F0914A020190F081E02D682F89E4B4
:1001200092E00994CF92DF92EF92FF920F931F9388
:10013000CF93DF936C017A018B01C0E0D0E0CE1544
:10014000DF0589F0D8016D918D01D601ED91FC910B
:100150000190F081E02DC6010995892B11F47E01F3
:1001600002C02196ECCFC701DF91CF911F910F9173
:10017000FF90EF90DF90CF900895089580E090E099
:100180000895FC01538D448D252F30E0842F90E09D
:10019000821B930B541710F0CF9608950197089582
:1001A000FC01918D828D981761F0828DDF01A80F7F
:1001B000B11D5D968C91928D9F5F9F73928F90E0A1
:1001C00008958FEF9FEF0895FC01918D828D981710
:1001D00031F0828DE80FF11D858D90E008958FEF4D
:1001E0009FEF0895FC01918D228D892F90E0805C16
:1001F0009F4F821B91098F739927089589E492E09C
:100200000E94F20021E0892B09F420E0822F08955A
:10021000FC01848DDF01A80FB11DA35ABF4F2C91A3
:10022000848D90E001968F739927848FA689B78972
:100230002C93A089B1898C9180648C93938D848D4B
:10024000981306C00288F389E02D80818F7D80831A
:100250000895EF92FF920F931F93CF93DF93EC01DA
:1002600081E0888F9B8D8C8D981305C0E889F98972
:10027000808185FD24C0F62E0B8D10E00F5F1F4F8F
:100280000F731127E02E8C8DE8120CC00FB607FCFF
:10029000FACFE889F989808185FFF5CFCE010E94E8
:1002A0000801F1CF8B8DFE01E80FF11DE35AFF4FDE
:1002B000F0820B8FEA89FB898081806207C0EE891A
:1002C000FF896083E889F98980818064808381E087
:1002D00090E0DF91CF911F910F91FF90EF900895E3
:1002E000CF93DF93EC01888D8823C9F0EA89FB89DD
:1002F000808185FD05C0A889B9898C9186FD0FC0D4
:100300000FB607FCF5CF808185FFF2CFA889B989A8
:100310008C9185FFEDCFCE010E940801E7CFDF91E0
:10032000CF91089580E090E0892B29F00E94FE0093
:1003300081110C940000089590E0FC01EE58FF4FED
:100340003491FC01E057FF4F2491FC01EC55FF4F25
:10035000E491EE2309F43BC0332339F1333091F0BB
:1003600038F43130A9F0323001F584B58F7D12C0F8
:10037000373091F03830A1F03430B9F480918000FA
:100380008F7D03C0809180008F77809380000DC0A7
:1003900084B58F7784BD09C08091B0008F7703C08A
:1003A0008091B0008F7D8093B000F0E0EE0FFF1FD2
:1003B000E859FF4FA591B4918FB7F894EC91611172
:1003C00003C020952E2301C02E2B2C938FBF0895A0
:1003D000CF93DF9390E0FC01E057FF4F2491FC01A5
:1003E000EC55FF4F8491882361F190E0880F991FAD
:1003F000FC01EA57FF4FC591D491FC01E859FF4F2A
:10040000A591B491611109C09FB7F8948881209596
:1004100082238883EC912E230BC0623061F49FB756
:10042000F8943881822F809583238883EC912E2B3A
:100430002C939FBF06C08FB7F894E8812E2B28839A
:100440008FBFDF91CF9108953FB7F894809120013D
:1004500090912101A0912201B091230126B5A89B82
:1004600005C02F3F19F00196A11DB11D3FBFBA2F46
:10047000A92F982F8827820F911DA11DB11DBC01A6
:10048000CD0142E0660F771F881F991F4A95D1F76B
:1004900008958F929F92AF92BF92CF92DF92EF9288
:1004A000FF926B017C010E9424024B015C01C1148C
:1004B000D104E104F104F1F00E942402DC01CB013B
:1004C00088199909AA09BB09883E9340A105B1057D
:1004D00070F321E0C21AD108E108F10888EE880E15
:1004E00083E0981EA11CB11CC114D104E104F104E5
:1004F00019F7DDCFFF90EF90DF90CF90BF90AF90D6
:100500009F908F9008951F93CF93DF93182FC3E090
:10051000D0E061E0812F0E949C016EE170E080E0FC
:1005200090E00E94490260E0812F0E949C016EE1F0
:1005300070E080E090E00E944902219751F7DF913E
:10054000CF911F9108952091380130913901809108
:100550004302909144022032310511F4807F0895C6
:100560002034310511F4807E08952038310511F4CE
:10057000807C08952115314009F48078089589E43C
:1005800092E00E94F200892BD1F389E492E00E946C
:10059000D0000895CF93C82F0E94BF02803241F44B
:1005A00084E10E9487008C2F0E94870080E10AC0AE
:1005B0008091450290914602019690934602809365
:1005C000450285E1CF910C9487000E94BF028032E2
:1005D00029F484E10E94870080E10AC080914502ED
:1005E000909146020196909346028093450285E1E0
:1005F0000C9487000F931F93CF93DF938C01C0E47B
:10060000D1E0CE01805491408017910724F40E94DC
:10061000BF028993F6CFDF91CF911F910F9108957B
:100620008EBD00000DB407FEFDCF8EB50895CF93AB
:10063000DF9300D01F92CDB7DEB72B834A83698347
:100640000E9410036981862F0E9410034A81842F23
:100650000E9410032B81822F0F900F900F90DF913B
:10066000CF910C941003EF92FF920F931F93CF93AF
:10067000DF93EC018B01CB010E94FA0260E087E07E
:100680000E949C0180E4E82E81E0F82E0C0F1D1FD3
:10069000C017D10781F0F70121917F014C2F6D2FF9
:1006A00080EC0E9417036DE270E080E090E00E9411
:1006B00049022196EDCF61E087E00E949C0180E134
:1006C000DF91CF911F910F91FF90EF900895CF93FD
:1006D000DF9300D0CDB7DEB7482F60E087E04983D5
:1006E0009A830E949C0120E049819A81692F8CE4C1
:1006F0000E9417036EE170E080E090E00E944902E2
:1007000061E087E00F900F90DF91CF910C949C01F6
:100710000E94A2081F920F920FB60F9211242F93DE
:100720003F934F935F936F937F938F939F93AF9379
:10073000BF93EF93FF9389E492E00E940801FF9139
:10074000EF91BF91AF919F918F917F916F915F9149
:100750004F913F912F910F900FBE0F901F901895C2
:100760001F920F920FB60F9211242F938F939F9386
:10077000EF93FF93E0915902F0915A028081E0914A
:100780005F02F091600282FD12C09081809162024E
:100790008F5F8F7320916302821751F0E0916202A4
:1007A000F0E0E75BFD4F958F8093620201C080818E
:1007B000FF91EF919F918F912F910F900FBE0F900E
:1007C0001F9018951F920F920FB60F9211242F931E
:1007D0003F934F935F936F937F938F939F93AF93C9
:1007E000BF93EF93FF938091240190912501A091F5
:1007F0002601B091270130911F0123E0230F2D37EF
:1008000020F40196A11DB11D05C026E8230F029614
:10081000A11DB11D20931F018093240190932501F8
:10082000A0932601B093270180912001909121018E
:10083000A0912201B09123010196A11DB11D8093C9
:10084000200190932101A0932201B0932301809174
:100850001E01882329F0E0911C01F0911D010995EA
:10086000FF91EF91BF91AF919F918F917F916F9188
:100870005F914F913F912F910F900FBE0F901F905E
:100880001895789484B5826084BD84B5816084BDF8
:1008900085B5826085BD85B5816085BD80916E001E
:1008A000816080936E00109281008091810082604F
:1008B000809381008091810081608093810080918C
:1008C00080008160809380008091B100846080937B
:1008D000B1008091B00081608093B00080917A0077
:1008E000846080937A0080917A00826080937A009D
:1008F00080917A00816080937A0080917A0080688C
:1009000080937A001092C100E0915902F0915A024E
:1009100082E08083E0915502F09156021082E091CE
:100920005702F091580287E6808310926102E091AD
:100930005D02F0915E0286E08083E0915B02F091BF
:100940005C02808180618083E0915B02F0915C02B7
:10095000808188608083E0915B02F0915C028081FD
:1009600080688083E0915B02F0915C0280818F7DE2
:10097000808361E087E00E94E80187E090E00E94C8
:10098000830261E088E00E94E80188E090E00E9434
:10099000830261E089E00E94E80189E090E00E9422
:1009A00083021BE7212E10E0312E0BE8C02EDD2440
:1009B000D394AA24A394B12C9EEA492E90E0592EF8
:1009C0002AE9822E20E0922E8091470290914802DF
:1009D000892B11F061E001C060E087E00E949C017A
:1009E0008091450290914602892B11F061E001C08F
:1009F00060E088E00E949C012FB7F8948091240168
:100A000090912501A0912601B09127012FBF40911F
:100A100028015091290160912A0170912B018C01CC
:100A20009D01041B150B260B370B08321105210500
:100A3000310508F46BC08093280190932901A0939D
:100A40002A01B0932B01C091010180EE8C0F813AF5
:100A500028F0809100018195809300018091000130
:100A6000C80FC09301010C2F10E061E089E00E94E3
:100A7000E801C11102C060E003C0CF3F29F461E08A
:100A800089E00E949C0142C0F10184918330F9F019
:100A900048F48130B9F08230A1F584B5806284BD1C
:100AA000C8BD34C08730E9F0883019F1843049F589
:100AB0008091800080628093800010938B0000936F
:100AC0008A0024C084B5806884BDC7BD1FC08091E2
:100AD00080008068809380001093890000938800D4
:100AE00015C08091B00080688093B000C093B300BF
:100AF0000DC08091B00080628093B000C093B400BC
:100B000005C0003811050CF0BACFB5CF89E492E0EA
:100B10000E94F200892B09F4DFC20E94BF028135D6
:100B200009F46CC2B0F4813409F451C040F480334C
:100B3000C1F18133D9F1803209F0BCC2B1C2853430
:100B400009F4DDC0803509F4DFC0823409F0B2C297
:100B500053C0813609F45BC1D0F4863509F43DC237
:100B6000803609F452C1853509F0A4C20E94BF0243
:100B7000C82F0E94BF02282F30E0322F2227C90140
:100B80008C0F911D909344028093430265C2843779
:100B900009F4CAC1853709F462C2843609F08AC2F1
:100BA00039C1109246021092450256C20E94BF02FD
:100BB000803209F075C284E10E94870047E050E06E
:100BC00064E171E089E492E00E94920067C20E94B1
:100BD000BF02813859F020F4803861F482E00BC202
:100BE000823831F0833931F483E505C281E003C2F4
:100BF00082E101C280E0FFC184E190E00E94FA023C
:100C00002091400120932D018091410180932E017C
:100C10008091420180932F018091430180933001A4
:100C2000809144018093310180914501809332018C
:100C30008091460180933301809147018093340174
:100C4000809148018093350180914A0190E0982F6E
:100C5000882730914B01830F911D9093370180932A
:100C6000360180914C0190E0982F882730914D01FA
:100C7000830F911D909339018093380180914E012B
:100C800090E0982F882730914F01830F911D90930A
:100C90003B0180933A018091500190E0A0E0B0E0E8
:100CA000BA2FA92F982F882730915101830F911DBA
:100CB000A11DB11DDC01992788274091520150E008
:100CC000542F4427052E000C660B770B840F951FBD
:100CD000A61FB71F30915301830F911DA11DB11D98
:100CE00080933C0190933D01A0933E01B0933F015E
:100CF00081E0203E08F480E080934202ADC185E0AF
:100D000090E00E94FA02A8C18091470290914802A7
:100D1000892B09F0A1C1609142028AE00E949C01E6
:100D200061E08AE00E94E801CFB7F8948091410227
:100D3000811125C0F2018491F4019491E82FF0E033
:100D4000EE0FFF1FEA57FF4FA591B4918C919823A6
:100D500021F461E08AE00E949C0161E08AE00E9447
:100D6000E8018CB580618CBD8CB580648CBD61E080
:100D70008DE00E94E80161E08BE00E94E801809133
:100D800041028F5F80934102CFBF80914002882350
:100D900079F08FB7F89490914002913039F49DB377
:100DA00090932C019DB39DBB8FBF02C080932C01FB
:100DB00083E58CBD1DBC60E08DE00E949C0164E178
:100DC00070E080E090E00E944902C091420281E020
:100DD0006C2F68278AE00E949C01C6010197F1F7F9
:100DE0006C2F8AE00E949C0162E370E080E090E05A
:100DF0000E94490220E040E063E58CEA0E9417036C
:100E0000B0924802A092470227C10E94BF020E94EE
:100E1000BF0222C10E94BF02C82F0E94BF02D0E0C1
:100E2000DC2FCC27C80FD11D0E94BF02863409F0E9
:100E300044C0CE010E94FA020E94BF02803209F033
:100E40002FC184E10E9487000E94A3028C01E12C43
:100E5000F12CEC16FD066CF50E94A3023C0108176C
:100E6000190731F0C8010E9467030E94A3023C01E8
:100E70000091430210914402F701E05CFE4F208193
:100E8000402F612F80E40E941703F2E0EF0EF11C67
:100E9000F701E15CFE4F2081402F612F88E40E9422
:100EA00017030F5F1F4F1093440200934302830107
:100EB000D0CFC8010E946703F1C0853409F08BC010
:100EC000009143021091440280913A0190913B01BC
:100ED0008C179D0718F0000F111F0BC08091450261
:100EE0009091460201969093460280934502C1E19B
:100EF00011C0C132D10548F060E270E0C8010E9423
:100F00003303005E1F4FA097F4CFBE01C8010E94BB
:100F10003303C0E10E94BF02803209F0C1C084E106
:100F20000E9487008C2FD6C00E94BF02C82F0E944B
:100F3000BF02082F0E94BF02182F0E94BF028032FA
:100F400009F0AEC0D0E0DC2FCC27C00FD11D84E16A
:100F50000E948700163431F500E010E00C171D07E1
:100F60000CF09CC0409143026091440220E080E27A
:100F70000E9417030E94870040914302609144023F
:100F800020E088E20E9417030E94870080914302BC
:100F900090914402019690934402809343020E5F25
:100FA0001F4FDCCF1534B9F4009143021091440275
:100FB000000F111FC00FD11F0C171D0709F46EC0C1
:100FC0002FEF402F612F80EA0E9417030E948700B5
:100FD0000F5F1F4FF1CF81E17DC084E090E00E9460
:100FE000FA022091430140914201609141018091B8
:100FF00040010E9417030E94CA026EC0109246026E
:10100000109245029FB7F89480914102882319F00D
:1010100081508093410280914102811105C08CB5BD
:101020008F7B8CBD109240029FBF60E08BE00E94DE
:10103000E80160E08DE00E94E8016091420281E0F9
:1010400068278AE00E949C0160E08AE00E94E80133
:1010500010924802109247020E94E5023DC00E9491
:10106000BF028032E9F484E10E94870020E040E082
:1010700060E080E30E9417030E94870020E041E0C7
:1010800060E080E30E9417030E94870020E042E0B6
:1010900060E080E30E9417030E94870080E11AC08D
:1010A000809145029091460201969093460280936A
:1010B00045020FC08091450290914602019690939F
:1010C0004602809345020E94BF02803211F482E101
:1010D00001C085E10E9487000E94920175CCE9E47D
:1010E000F2E01382128288EE93E0A0E0B0E0848305
:1010F0009583A683B78386E091E09183808385EC16
:1011000090E09587848784EC90E09787868780ECD1
:1011100090E0918B808B81EC90E0938B828B82ECC2
:1011200090E0958B848B86EC90E0978B868B118E6C
:10113000128E138E148E0895EE0FFF1F0590F491FA
:10114000E02D099481E090E0F8940C94A708F894BD
:02115000FFCFCF
:1011520008800000000029019200C1007001F20025
:0C116200D000E4004156522049535000D8
:00000001FF
