:100000000C94C8000C94F0000C94F0000C94F000D8
:100010000C94F0000C94F0000C94F0000C94F000A0
:100020000C94F0000C94F0000C94F0000C94F00090
:100030000C94F0000C94F0000C9472010C94F000FD
:100040000C94F0000C94F0000C941D030C94F00040
:100050000C94F0000C94F0000C94F0000C94F00060
:100060000C94F0000C94F0004E6F2031574952452B
:100070002073656E736F7273210D0A000D0A31577C
:1000800049524520737461727465640D0A00005E04
:10009000BCE2613FDD83C29C7E20A3FD1F419DC366
:1000A000217FFCA2401E5F01E3BD3E6082DC237D18
:1000B0009FC1421CFEA0E1BF5D0380DE3C62BEE04A
:1000C000025CDF81633D7C22C09E1D43A1FF461878
:1000D000FAA427799BC584DA3866E5BB5907DB8526
:1000E0006739BAE406581947A5FB7826C49A653BD8
:1000F000D987045AB8E6A7F91B45C6987A24F8A60A
:10010000441A99C7257B3A6486D85B05E7B98CD237
:10011000306EEDB3510F4E10F2AC2F7193CD114FE5
:10012000ADF3702ECC92D38D6F31B2EC0E50AFF197
:10013000134DCE90722C6D33D18F0C52B0EE326CC9
:100140008ED0530DEFB1F0AE4C1291CF2D73CA94F7
:100150007628ABF517490856B4EA6937D58B5709A5
:10016000EBB536688AD495CB2977F4AA4816E9B757
:10017000550B88D6346A2B7597C94A14F6A8742A89
:10018000C896154BA9F7B6E80A54D7896B35AB0367
:1001900011241FBECFEFD8E0DEBFCDBF11E0A0E03D
:1001A000B1E0E4EBF7E002C005900D92A235B10793
:1001B000D9F721E0A2E5B1E001C01D92A73BB2074B
:1001C000E1F710E0C8ECD0E004C02197FE010E94E6
:1001D000D203C73CD107C9F70E9436030C94D80359
:1001E0000C940000BF92CF92DF92EF92FF920F9398
:1001F0001F93CF93DF93462F572FBC01F894C090E5
:100200007101D0907201E0907301F0907401C40EFE
:10021000D51EE61EF71E7894CDE5D1E010E000E093
:1002200080915C0180171106A9F0A4F08A81EB810E
:10023000F0E0EF58FE4FB080B8228F3F19F08C816C
:100240008B1521F0E881F9810995BC820F5F1F4F62
:100250002596E6CFF8948091710190917201A0915A
:100260007301B09174018C159D05AE05BF0598F220
:100270007894DF91CF911F910F91FF90EF90DF90D5
:10028000CF90BF90089520915C012430C8F435E0F0
:10029000239FF0011124E35AFE4F80839183862F20
:1002A0008F71482F50E093E0559547959A95E1F767
:1002B0004383811106C08FEF82832F5F20935C01FF
:1002C0000895677081E090E001C0880F6A95EAF7B1
:1002D000F3CF89EF87BD82E084BD93E095BD809325
:1002E0006E0008951F921FB61F9211248F939F9343
:1002F000AF93BF938091710190917201A0917301AE
:10030000B09174010196A11DB11D8093710190936C
:100310007201A0937301B0937401BF91AF919F914B
:100320008F911F901FBE1F901895FC016083089548
:10033000FC01908187B1492F4095842387B988B10A
:10034000842388B9E8E2F0E03197F1F7692F70E093
:1003500026B130E02095309526233723232BC1F793
:1003600087B1892B87B9E0E8F7E03197F1F7F89486
:1003700087B1842387B9E8E1F1E03197F1F786B1DD
:100380007894E0E4F6E03197F1F7809589230895B9
:10039000FC018081F89428B1982F9095922398B908
:1003A00097B1982B97B9E8E2F0E03197F1F766231F
:1003B00069F098B1892B88B988EC90E00197F1F742
:1003C00084E190E00197F1F778940895ECEDF0E086
:1003D0003197F1F798B1892B88B9F2CFEF92FF925C
:1003E0000F931F93CF93DF93F82E092FE62EC8E0CB
:1003F000D0E011E06E2D61238F2D902F0E94C80157
:10040000110F2197B9F7DF91CF911F910F91FF90B5
:10041000EF900895EF92FF920F931F93CF93DF9386
:100420008C01EB017B01E40EF51ECE15DF0529F0F2
:100430006991C8010E94EE01F8CFDF91CF911F9121
:100440000F91FF90EF9008950F931F93CF93DF9339
:10045000D82FC92F8B0165E50E94EE0148E050E0DE
:10046000B8018D2F9C2FDF91CF911F910F910C948C
:100470000A02FC019081F89428B1392F309523238A
:1004800028B927B1292B27B9ECE0F0E03197F1F733
:1004900087B1832387B9E8E2F0E03197F1F786B1BD
:1004A000892386B97894E4EDF0E03197F1F7089567
:1004B000EF92FF920F931F93CF93DF93F82EE92EC5
:1004C00008E010E0D1E0C0E08F2D9E2D0E9439029F
:1004D0008111CD2BDD0F01501109B1F78C2FDF9168
:1004E000CF911F910F91FF90EF900895EF92FF929F
:1004F0000F931F93CF93DF938C01EB017B01E40EED
:10050000F51ECE15DF0529F0C8010E945802899317
:10051000F8CFDF91CF911F910F91FF90EF90089549
:10052000282F80E0615058F0A22FB92FED91E827D5
:10053000F0E0E257FF4F84912A2F9B2FF3CF0895CD
:10054000CF93DF9300D000D0CDB7DEB769837A8335
:100550008B839C8360E874E88EE190E029813A8186
:100560004B815C810E94B00321503109410951093E
:1005700056954795379527952093C40086E080933C
:10058000C20088E98093C1000F900F900F900F90E8
:10059000DF91CF9108959091C00095FFFCCF80939B
:1005A000C6000895CF93DF93EC018991882321F051
:1005B0000E94CB02CE01F8CFDF91CF9108950F9327
:1005C0001F93CF93DF93EC018C01060F171FC01709
:1005D000D10721F089910E94CB02F9CFDF91CF9111
:1005E0001F910F910895CF93DF93EC01FE01849149
:1005F0002196882319F00E94CB02F8CFDF91CF918A
:100600000895882339F08091760190917501891BB6
:100610008F73089590917601809175019817D1F3A9
:10062000E0917501F0E0E958FE4F808190917501ED
:100630009F5F9F739093750108958F938FB78F93EA
:10064000EF93FF938091C600E0917601F0E0E958C6
:10065000FE4F8083809176018F5F8F738093760148
:10066000FF91EF918F918FBF8F9118950E94690133
:1006700060E875E280E090E00E94A00264EF71E023
:1006800080E090E00E94F2008CE790E00E94F3028C
:100690008BE591E00E949801811104C088E690E00A
:1006A0000E94F30264EF71E080E090E00E94F200AB
:1006B0008BE591E00E9498016CEC8BE591E00E9443
:1006C000EE0164E48BE591E00E94EE0160E273E0EC
:1006D00080E090E00E94F200C1E0D1E08BE591E083
:1006E0000E949801BE018BE591E00E9424026EEB0E
:1006F0008BE591E00E94EE0149E050E062E571E097
:100700008BE591E00E947602289681E0C934D807F3
:1007100029F76CE271E080E090E00E94F2008BE546
:1007200091E00E94980169E471E08BE591E00E94FC
:1007300024026091000164598BE591E00E94EE0172
:10074000809100018F5F83708093000160ED77E0FE
:1007500080E090E0ABCF64E08BE591E00C949501F4
:10076000A1E21A2EAA1BBB1BFD010DC0AA1FBB1FB5
:10077000EE1FFF1FA217B307E407F50720F0A21B27
:10078000B30BE40BF50B661F771F881F991F1A9494
:1007900069F760957095809590959B01AC01BD01BE
:1007A000CF010895EE0FFF1F0590F491E02D0994FD
:0407B000F894FFCFEB
:1007B400032813390E060000AF288AB80C0600007F
:1007C4008928A3980D060000DE28A7C60C060000A1
:1007D400BA289FA90E0600008F28B2EEA9040000D3
:1007E400AB28F33DA9040000F9286164118D9ED75C
:1007F400EA286164118D8CFF76695A4B3C2D1E0FDB
:020804003300BF
:00000001FF
