:020000020000FC
:100000000FC0189518951895189518951895189566
:1000100005C01895695A4B3C2D1E0F3311BC18951D
:1000200011241FBE8FE98DBF479A8FE287BB8CE2F8
:1000300084BB1BD0FECF26D031D0053551F43AD049
:10004000C1F72CD00C36A8F3003798F7037008BB23
:10005000F0CF0C3C71F700E501BD06E401BDA895A9
:10006000789400E305BF8895E4CF88278395B49BF7
:10007000FDCF873818F08FE98DBFDDCFB499FECF63
:1000800018BA089584E08A95F1F7BC9A88E28A95B7
:10009000F1F7BC9884E18A95F1F70895002718E0FC
:1000A000E4DF88E08A95F1F70695B49900681A951F
:1000B000B9F7089528E0E4E1F0E0F0DF15910117C9
:0800C00011F42A95D1F708950F
:00000001FF
