:100000000C9447000C9466000C9464000C946400FB
:100010000C9464000C9464000C9464000C946400D0
:100020000C9464000C9464000C9464000C946400C0
:100030000C9464000C9464000C94D7000C9464003D
:100040000C9464000C9464000C9492010C94640071
:100050000C9464000C9464000C9464000C94640090
:100060000C9464000C9464004572726F72206E757B
:100070006C206465746563746F720D0A000D0A501C
:1000800032323020737461727465640D0A00112479
:100090001FBECFEFD8E0DEBFCDBF11E0A0E0B1E0E2
:1000A000E6E3F4E002C005900D92A230B107D9F763
:1000B00021E0A2E0B1E001C01D92AF34B207E1F748
:1000C0000E94AB010C9419020C9400001F921FB601
:1000D0001F9211242F933F934F935F936F937F93BE
:1000E0008F939F93AF93EF93FF93809103018823A6
:1000F00039F190E0A8E060E570E080910201282FDE
:100100002095422F417050E09A01220F331F295F42
:100110003F4F220F331F9217130644F48AB18A27E8
:100120008AB9FB013197F1F79F5FE7CF90E0959592
:100130008795809302018091030181508093030190
:10014000FF91EF91AF919F918F917F916F915F910F
:100150004F913F912F911F901FBE1F901895462FD2
:10016000572FBC0140930701509308016093090188
:1001700070930A0181E080930601E0910401F091FF
:10018000050180910601882321F03097D1F309956C
:10019000F4CF0895909305018093040189EF87BD02
:1001A00082E084BD93E095BD80936E0008951F9218
:1001B0001FB61F9211248F939F93AF93BF9380918B
:1001C0000B0190910C01019690930C0180930B010F
:1001D00080910601882309F180910701909108011F
:1001E000A0910901B0910A010197A109B109809379
:1001F000070190930801A0930901B0930A0180912F
:10020000070190910801A0910901B0910A0100979E
:10021000A105B10511F410920601BF91AF919F9114
:100220008F911F901FBE1F901895CF93DF9300D022
:1002300000D0CDB7DEB769837A838B839C8360E877
:1002400074E88EE190E029813A814B815C810E94C3
:10025000F7012150310941095109569547953795C4
:1002600027952093C40086E08093C20088E980939C
:10027000C1000F900F900F900F90DF91CF910895D4
:100280009091C00095FFFCCF8093C6000895CF9356
:10029000DF93EC018991882321F00E944001CE0177
:1002A000F8CFDF91CF9108950F931F93CF93DF93F2
:1002B000EC018C01060F171FC017D10721F089919F
:1002C0000E944001F9CFDF91CF911F910F910895C6
:1002D000CF93DF93EC01FE0184912196882319F0DE
:1002E0000E944001F8CFDF91CF910895882339F023
:1002F00080910E0190910D01891B8F73089590914B
:100300000E0180910D019817D1F3E0910D01F0E0FD
:10031000E15FFE4F808190910D019F5F9F739093ED
:100320000D0108958F938FB78F93EF93FF93809173
:10033000C600E0910E01F0E0E15FFE4F8083809106
:100340000E018F5F8F7380930E01FF91EF918F915C
:100350008FBF8F91189590E080E00E94CA0060E006
:1003600072EC81E090E00E94150183E080936900C7
:1003700091E09DBB1092B10010928000109270002D
:1003800010926F0022E12093B0008093B40080931C
:10039000B3009093B100789464EF71E080E090E056
:1003A0000E94AF008DE790E00E946801D4E3C8E0AE
:1003B000809100018F5F8833B8F4809300018091B1
:1003C00000018093020180910301882321F088E6D7
:1003D00090E00E946801C093030160ED77E080E047
:1003E00090E00E94AF00E4CFD0930001E8CFA1E2FB
:1003F0001A2EAA1BBB1BFD010DC0AA1FBB1FEE1F9F
:10040000FF1FA217B307E407F50720F0A21BB30BE9
:10041000E40BF50B661F771F881F991F1A9469F765
:1004200060957095809590959B01AC01BD01CF01C1
:060430000895F894FFCFCF
:02043600340090
:00000001FF
