:020000020000FC
:1000000011C0189518951895189504C0189518954D
:10001000189518950FB618BA38D08BE188B999277A
:100020000FBE189511241FBE0FE90DBF0CE107BBD1
:100030000BE108B9BB27DD27C0E619921992199286
:1000400019921127F89418BB08E078940A95F1F7F3
:10005000F89418BA789400E80A95F1F793959333D9
:1000600088F399273327C0E6F8942881321710F4D3
:10007000322F4C2F1992C436C0F37894333010F3DA
:10008000429546954871142FDDCFAA27882783957E
:100090008C3098F44599FBCFA395882783958C30B5
:1000A00018F4459BFBCFF2CFA75038F0A83028F4C6
:0C00B000A695A0668C9183958C93089512
:00000001FF
