:100000000C9434000C9446000C9446000C9446006A
:100010000C9446000C9446000C9446000C94460048
:100020000C9446000C9446000C9446000C94460038
:100030000C9446000C9446000C9470000C944600FE
:100040000C9446000C9446000C9446000C94460018
:100050000C9446000C9446000C9446000C94460008
:100060000C9446000C94460011241FBECFEFD8E03C
:10007000DEBFCDBF21E0A0E0B1E001C01D92AB30FA
:10008000B207E1F70E94B8000C94CA000C9400007B
:10009000462F572FBC0140930301509304016093F6
:1000A00005017093060181E080930201E091000157
:1000B000F091010180910201882321F03097D1F362
:1000C0000995F4CF0895909301018093000189EF81
:1000D00087BD82E084BD93E095BD80936E00089556
:1000E0001F921FB61F9211248F939F93AF93BF93BC
:1000F0008091070190910801A0910901B0910A0136
:100100000196A11DB11D8093070190930801A09352
:100110000901B0930A0180910201882309F18091BD
:10012000030190910401A0910501B091060101978E
:10013000A109B1098093030190930401A0930501E3
:10014000B09306018091030190910401A0910501F3
:10015000B09106010097A105B10511F410920201BA
:10016000BF91AF919F918F911F901FBE1F901895C7
:1001700080E284B990E080E00E9463007894C0E25D
:1001800085B18C2785B960ED77E080E090E00E9432
:080190004800F6CFF894FFCF00
:00000001FF
