:100000000C9498000C94B5000C94B5000C94B500B9
:100010000C94B5000C94B5000C94B5000C94B5008C
:100020000C94B5000C94B5000C94B5000C94B5007C
:100030000C94B5000C94B5000C94A1030C94B5007D
:100040000C94B5000C94B5000C945C040C94B500B1
:100050000C94B5000C94B5000C94B5000C94B5004C
:100060000C94B5000C94B500506F776572204F4624
:10007000460D0A5E00537570706F7274656420637C
:100080006F6D6D616E64733A20662C712C652C72F5
:100090002C640D0A0053656E64207320746F207306
:1000A000746172740D0A0045465553453D0048463B
:1000B0005553453D004C465553453D0053656C65D1
:1000C000637420467573653A206C2C682C653A0D74
:1000D0000A00446F6E652E0D0A005374617274201D
:1000E00070726F6772616D6D696E672E2E2E0D0ACC
:1000F0000050726F6772616D204D656D6F7279206F
:100100006973206572617365642121210D0A0043C2
:10011000616C6962726174696F6E2069733A200064
:100120005369676E61747572652069733A200000C7
:1001300011241FBECFEFD8E0DEBFCDBF11E0A0E09D
:10014000B1E0E0ECF9E002C005900D92A033B107F8
:10015000D9F721E0A0E3B1E001C01D92AD3AB207AA
:10016000E1F70E9475040C94DE040C9400001F93C8
:10017000CF93DF93CDB7DEB761970FB6F894DEBFAC
:100180000FBECDBF182F81E1E0E0F1E0DE01119656
:1001900001900D928A95E1F7E12FF0E084E0F5956A
:1001A000E7958A95E1F781E090E08C0F9D1FE80FBD
:1001B000F91F80810E940A04E12FEF7081E090E036
:1001C0008C0F9D1F8E0F911DFC01808161960FB6D3
:1001D000F894DEBF0FBECDBFDF91CF911F910C947D
:1001E0000A04CF93C82F892F0E94B7008C2FCF917C
:1001F0000C94B700CF93DF93482F50E070E0329B10
:10020000FECFEBE0F0E090E080E0CCE0D0E0440F07
:10021000551F660F771F51FB222720F971FD2260C1
:1002200028B9880F991F36B13470832B322F38606C
:1002300038B9DE011197F1F728B9319741F724E079
:10024000969587952A95E1F7DF91CF9108951F93B1
:10025000CF93DF93EC01162F6CE480E40E94FA0048
:100260006CE2812F0E94FA006D2F80E00E94FA005C
:100270006C2F80E0DF91CF911F910C94FA00CF9307
:100280006CE484E00E94FA0068E680E00E94FA00D4
:100290006CE680E00E94FA00C82F81E191E00E94A4
:1002A00011048C2F0E94B7006CE484E00E94FA00D5
:1002B0006AE780E00E94FA006EE780E00E94FA00A0
:1002C000C82F89E191E00E9411048C2F0E94B70091
:1002D0006CE484E00E94FA006AE680E00E94FA0082
:1002E0006EE680E00E94FA00C82F83E291E00E944F
:1002F00011048C2F0E94B7008DE291E0CF910C94F5
:100300001104CF93DF936CE488E00E94FA006CE064
:1003100081E00E94FA0068E680E00E94FA006CE644
:1003200080E00E94FA00D82F6CE488E00E94FA0076
:100330006CE082E00E94FA0068E680E00E94FA0029
:100340006CE680E00E94FA00C82F80E291E00E94F3
:1003500032048D2F0E94B7008C2F0E94B7008DE2CF
:1003600091E0DF91CF910C941104CF936CE488E07D
:100370000E94FA006CE081E00E94FA0068E780E0E9
:100380000E94FA006CE780E00E94FA00C82F8FE01C
:1003900091E00E9432048C2F0E94B7008DE291E020
:1003A000CF910C9411041F93CF93DF938091600140
:1003B00090916101880F991F0E94F1008AE30E94C9
:1003C0000A046CE482E00E94FA00C8E06CE08091CC
:1003D00060010E94FA006CE1809161010E94FA00C4
:1003E00068E680E00E94FA006CE680E00E94FA0075
:1003F000182F68E780E00E94FA006CE780E00E9416
:10040000FA00D82F80E20E940A04812F0E94B700D0
:1004100080E20E940A048D2F0E94B7008091600143
:100420009091610101969093610180936001C150A8
:1004300069F68DE291E0DF91CF911F910C94110448
:100440006CE480E80E94FA0064E680E00E94FA0012
:100450006CE680E00E94FA006CE480E00E94FA0002
:1004600081EF90E00C943204CF92DF92EF92FF92F2
:100470000F931F93CF938C016C0184E0C80ED11CA5
:10048000F12CE12CF801C1918F018C2F0E940A04FC
:10049000C13408F0C75084E0EE0CFF1C8A95E1F7E8
:1004A000CF70EC2A0C151D0569F7C701CF911F917C
:1004B0000F91FF90EF90DF90CF900895FC01808125
:1004C000813408F087508295807F9181913408F0C3
:1004D00097509F70892B08951F93CF93DF93C0E3AC
:1004E000D1E01C2F105D80E00E94400489938A3087
:1004F00011F01C13F8CFDF91CF911F910895EF9267
:10050000FF920F931F93CF93DF938AED90E00E94A9
:1005100032046CE480E10E94FA000E946C02809137
:1005200038018133F9F46CE1809161010E94FA0095
:1005300064E680E00E94FA006CE680E00E94FA0027
:1005400080913801813349F76CE480E00E94FA0021
:1005500082ED90E0DF91CF911F910F91FF90EF908E
:100560000C9432048033C9F683E391E00E94340294
:100570009695879590936101809360018AE291E05E
:100580000E94110481E391E00E945E02E82EE6944D
:1005900080E391E0C0E08C010C5F1F4FCE1539F174
:1005A00009960E943402D82FF92E6CE080916001E8
:1005B0000E94FA006CE28F2D0E94FA006CE38D2FEE
:1005C0000E94FA006DE780E00E94FA006CE780E08C
:1005D0000E94FA0020916001309161012F5F3F4F2E
:1005E0003093610120936001CF5FC801D4CF8DE2C9
:1005F00091E00E94110480916001909161018F70DF
:100600009927892B09F48FCF9BCF0F931F93CF93FB
:10061000DF938CEB90E00E94320480E00E94400463
:10062000883681F18C3649F1853699F10CE614E66D
:1006300080E00E944004D82F0E940A04D13408F0C0
:10064000D75080E00E944004C82F0E940A048DE227
:1006500091E00E941104C13408F0C75080E1D89F96
:10066000B0011124CF706C2BC8010E942701DF91CB
:10067000CF911F910F910C943F0185EB90E00E9468
:100680003204D4CF8EEA90E00E9432040CE714E7E3
:10069000CFCF87EA90E00E9432040EE616E6C8CF7C
:1006A00018B817B814B815B810926101109260010B
:1006B00085E990E00E94320480E00E944004833784
:1006C000B9F78FE087B980E385B988E384B96AE038
:1006D00070E080E090E00E9479038BE087B90E948F
:1006E00081010E94B5010E943F0185E790E00C94D2
:1006F0003204462F572FBC01409365015093660189
:10070000609367017093680181E080936401E091D8
:100710006201F091630180916401882321F0309798
:10072000D1F30995F4CF089590936301809362010A
:1007300089EF87BD82E084BD93E095BD80936E0014
:1007400008951F921FB61F9211248F939F93AF930A
:10075000BF938091690190916A01019690936A011B
:100760008093690180916401882309F1809165017A
:1007700090916601A0916701B09168010197A1096C
:10078000B1098093650190936601A0936701B093CE
:1007900068018091650190916601A0916701B09117
:1007A00068010097A105B10511F410926401BF9191
:1007B000AF919F918F911F901FBE1F901895CF935F
:1007C000DF9300D000D0CDB7DEB769837A838B8307
:1007D0009C8360E874E88EE190E029813A814B8146
:1007E0005C810E94BC042150310941095109569590
:1007F0004795379527952093C40086E08093C200E3
:1008000088E98093C1000F900F900F900F90DF91B7
:10081000CF9108959091C00095FFFCCF8093C600C2
:100820000895CF93DF93EC018991882321F00E94F2
:100830000A04CE01F8CFDF91CF9108950F931F9353
:10084000CF93DF93EC018C01060F171FC017D10760
:1008500021F089910E940A04F9CFDF91CF911F9175
:100860000F910895CF93DF93EC01FE0184912196BF
:10087000882319F00E940A04F8CFDF91CF910895E0
:10088000882339F080916C0190916B01891B8F73E3
:10089000089590916C0180916B019817D1F3E091CC
:1008A0006B01F0E0E359FE4F808190916B019F5FF7
:1008B0009F7390936B0108958F938FB78F93EF93EE
:1008C000FF938091C600E0916C01F0E0E359FE4F88
:1008D000808380916C018F5F8F7380936C01FF9197
:1008E000EF918F918FBF8F91189590E080E00E94DB
:1008F000940360E072EC81E090E00E94DF031092CC
:10090000B0001092B1001092700083E08093B300A9
:1009100082E48093B00081E08093B10078940E94DB
:10092000500380E00E9440048037D9F084F485367B
:10093000A9F08636C9F08436A1F7109261011092B1
:100940006001C0E40E94D301C150E1F7EACF8137D2
:1009500071F0823731F70E94D301E3CF0E94200269
:10096000E0CF0E947F02DDCF0E940503DACF88E648
:1009700090E00E943204D3CFA1E21A2EAA1BBB1B27
:10098000FD010DC0AA1FBB1FEE1FFF1FA217B3075B
:10099000E407F50720F0A21BB30BE40BF50B661F71
:1009A000771F881F991F1A9469F760957095809535
:1009B00090959B01AC01BD01CF010895F894FFCF44
:1009C0003031323334353637383941424344454685
:1009D000004C467573653A20003B204846757365A8
:1009E0003A20003B2045467573653A20000D0A0009
:00000001FF
