:200000008B012228FF3FFF3FD100030E8301CA008316891F142883120808881B1228A714A4
:20002000A30014282715A40083120608B9003912331F3916390888008C134A0E8300D10E97
:20004000510E0900C001BE01A921B301540803190730D40040160330CC004011A701D72270
:20006000D522DC22D522DC2240184128BE11D3018B018C01A921D1225521861AE122C92258
:20008000AE22061C1323401C4D28D30A031D4D28401033135408D5008711401D5528C10BF0
:2000A0005A281E30C100C20B5A284C1C5A28B31A50295521401B8F2864000608B000301244
:2000C000331F3016401A8428B01F7F28B31E7028D30133154014762833113317A921842891
:2000E00033196C28C01A762806187828092241289D21061C4128D201C0160608B000A921DC
:20010000D7228516871140100023401A89288821CB284012331307130E220E223328831693
:2001200085148515831264000608B0003012331F3016401AC728B01FA528B31EA728D301A2
:200140003317BE1433154014B6283E15C328331DB428BE1CB628D50BB2283311A9213317D5
:200160008711C728BE10B6285408D500C01ABA280618BC28092241289D21061C4128C016AA
:20018000D2010608B000A921D722871185160023401A892888210608FB39B9003912331F69
:2001A000391639088800080883168C1783128B170B178C139D21DC22A7110A30C500A001CF
:2001C00064000618A001A00A2008003A0319C60A46080A3A0319232845080319F228C50BB8
:2001E000F228A715271DFB2814210618FB282108C13A03190029A71C0F29A122211C0F29B0
:20020000C601A71D09293313B31240105408D500D3013E118B01A901B101BE1533280B1D34
:20022000F2280B111323E02827112408A100C039C03A0319332921080C3980388700873076
:2002400084001030210580000034A001C6010034FF30A0000930C600003421080F39D5001C
:20026000D400401700342108E039E03A03192D292108C03A031925292108C13A0319282933
:200280002108C33A031980292108CC3A031D003464005521861AE1220800CC1087110034C3
:2002A0000130C1000130C2005A281E30C1000730C2000430C30074219D21C30B5C297A2197
:2002C0009D219D219D210430C30074219D21C30B66297A219D219D219D219D219D219D212E
:2002E0009D219D2140150800051283160516831207110034051283160512831207150034CD
:200300004C1400348316891F8329831208080800401A07178316091B8B298221CC008221B4
:200320008221D400E039E03A031D080054080F39D500D400401787130800640081010B11A3
:200340000B1DA0290B11103081000B1DA5290B1100348B0183018C018A0190010A30850011
:200360008601043087008901880183168F30810007309F000A308500FB3086008701FF3052
:2003800088000730890083120034D821D329D821CE293314E421640081010B110B1DC72901
:2003A0000B11193081000B1DC529F4210B1100341F140000000000001F151F19DD291E0811
:2003C00080001F10840A0800E821B31DFB290800A0308400831605148514851504309F00C7
:2003E000831208309F0008008316051007309F0083129F01080018309F0008001F140000A6
:20040000000000001F151F19032A1E08B6001F100800B31B102A33182D2AC9299D219D2910
:2004200081010B116400061A222AB101A90A2908023A0319B316BE1DB312B31E612ACC18B7
:200440008715612AB10A3108043A031D612ABE15A901B3123E10BD01612A3310A030840028
:200460001030BA000008BB00BC00840A81010B1164003B080002031C7F2A00083C02031C01
:20048000822A840ABA0B382A3B083C02153C0318562AB101A90A2908023A0319B316BE1DFC
:2004A000B312B31E612ACC188715612AB10A3108053A031D612ABE15A901B3123E10BD01E4
:2004C00087113E1C6D2A8711BD0A3D08603A031D762A3E10BD01A901B312B31E762ABD0AE2
:2004E0003D082A3A031D762A3E14BD010B1D762A0B11193081000B1D7B2A0B1100340008B0
:20050000BB00412A0008BC00412A03178C000313080003178D008F01031308008B13852228
:20052000031783168C130C1555308D00AA308D008C148C18992A0C1183128D0A03138B17C7
:200540000800A7102308A1002F39233885008530840010302105800084140034D601B31340
:20056000E821B311FE213608103C0318D60A3608A000FB21FE213608103C0318D60A36082E
:2005800020020318B315F4215608023A0319B31708002130C4009D21C40BCB2A08002530C5
:2005A000CA2A0830CA2A0330CA2A6430CA2A8716831687168312080087128316871283129C
:2005C0000800F322F322F322F322F322861AD522861AD522861AD522861AD522861AD522B7
:2005E000861AD52208000530C30074219D21C30BF62A7A210730C3009D21C30BFC2A0800D4
:2006000005149D2183160716091683123012331F30163008301AFB398800080806158717B8
:2006200064008B0108000618D201D20A5219C0120800FF3FFF3FFF3FFF3FFF3FFF3FFF3FFE
:20064000FF3FFF3FFF3FFF3FFF3FFF3FFF3FFF3FFF3FFF3FFF3FFF3FFF3FFF3FFF3FFF3FBA
:20066000FF3FFF3FFF3FFF3FFF3FFF3FFF3FFF3FFF3FFF3FFF3FFF3FFF3FFF3FFF3FFF3F9A
:20068000FF3FFF3FFF3FFF3FFF3FFF3FFF3FFF3FFF3FFF3FFF3FFF3FFF3FFF3FFF3FFF3F7A
:2006A000FF3FFF3FFF3FFF3FFF3FFF3FFF3FFF3FFF3FFF3FFF3FFF3FFF3FFF3FFF3FFF3F5A
:2006C000FF3FFF3FFF3FFF3FFF3FFF3FFF3FFF3FFF3FFF3FFF3FFF3FFF3FFF3FFF3FFF3F3A
:2006E000FF3FFF3FFF3FFF3FFF3FFF3FFF3FFF3FFF3FFF3FFF3FFF3FFF3FFF3FFF3FFF3F1A
:20070000FF3FFF3FFF3FFF3FFF3FFF3FFF3FFF3FFF3FFF3FFF3FFF3FFF3FFF3FFF3FFF3FF9
:20072000FF3FFF3FFF3FFF3FFF3FFF3FFF3FFF3FFF3FFF3FFF3FFF3FFF3FFF3FFF3FFF3FD9
:20074000FF3FFF3FFF3FFF3FFF3FFF3FFF3FFF3FFF3FFF3FFF3FFF3FFF3FFF3FFF3FFF3FB9
:20076000FF3FFF3FFF3FFF3FFF3FFF3FFF3FFF3FFF3FFF3FFF3FFF3FFF3FFF3FFF3FFF3F99
:20078000FF3FFF3FFF3FFF3FFF3FFF3FFF3FFF3FFF3FFF3FFF3FFF3FFF3FFF3FFF3FFF3F79
:2007A000FF3FFF3FFF3FFF3FFF3FFF3FFF3FFF3FFF3FFF3FFF3FFF3FFF3FFF3FFF3FFF3F59
:2007C000FF3FFF3FFF3FFF3FFF3FFF3FFF3FFF3FFF3FFF3FFF3FFF3FFF3FFF3FFF3FFF3F39
:2007E000FF3FFF3FFF3FFF3FFF3FFF3FFF3FFF3FFF3FFF3FFF3FFF3FFF3FFF3FFF3FFF3F19
:02080000FF3FB8
:02400E004D0B58
:00000001FF
