:020000040000FA
:020000000E28C8
:080008000900820769345A3433
:100010004B343C342D341E340F34333407309900C4
:100020000330850083168F123C3085008312352003
:100030003D201728512055304302031D17285F200B
:10004000031D172851206C304302031C17286F3002
:100050004302031817284308033985001728051D94
:100060002F2805193128850108002F20C001C00A5A
:10007000051D37286E30400208000430C000C00B58
:100080003F288316051183128501FA30C000C00B8A
:1000900047288316051583121430C000C00B4E2864
:1000A00008000830C1002F200C30C000C00B5628BB
:1000B0000310C30C0519C317C10B53280800C40152
:1000C0000830C2005120440805204302031D0800E7
:0800D000C40AC20B62280800FB
:02400E00D430AC
:00000001FF
