:020000040000FA
:020000001528C1
:08000800C0000308C1008C1DBB
:10001000102805115C204808C60082200B138C11A3
:1000200041088300C00E400E09009914303085004D
:1000300083160F160B3085008C1583120A30C3000F
:100040007620C30B2028C30143083920C600C60808
:1000500003192D288220C30A24288B1705192E285E
:100060000B1B37287620051571208C010B17051501
:100070002E288207733474346134723474340D342E
:100080000A34003455304902031D08006530C802A7
:10009000031C08000630480203180800C8180800AE
:1000A0004808552085000B1308008207303420349F
:1000B0003034303410340034483084000230C3000F
:1000C0000E3070200830C2000310800C191B8017FE
:1000D0000A307020C20B6428840AC30B622808000F
:1000E000C4000000C40B71280800C5007120F13065
:1000F0007020C50B762808000314C60C031C842846
:10010000851685280A30C20085122F307020C20B58
:040110007C2808003F
:02400E00D430AC
:00000001FF
