:100000000C947B000C9498000C9498000C9498002D
:100010000C9498000C9498000C9498000C94980000
:100020000C9498000C9498000C9498000C949800F0
:100030000C9498000C9498000C9457030C9498001E
:100040000C9498000C9498000C9412040C94980052
:100050000C9498000C9498000C9498000C949800C0
:100060000C9498000C949800506F776572204F465E
:10007000460D0A1B1B1B1B0052657365740D0A009D
:10008000446F6E652E0D0A000D0A4552524F5220E4
:1000900050524F4752414D4D494E472121210D0AA3
:1000A0001B1B1B1B0053746172742070726F67728C
:1000B000616D6D696E672E2E2E0050726F677261D2
:1000C0006D204D656D6F7279206973206572617363
:1000D00065642121210D0A00506F776572204F4E13
:1000E0000D0A0053656E64207320746F2073746171
:1000F00072740D0A000011241FBECFEFD8E0DEBFDE
:10010000CDBF11E0A0E0B1E0EAE3F9E002C0059064
:100110000D92A634B107D9F721E0A6E4B1E001C001
:100120001D92A73CB207E1F70E942B040C949B049C
:100130000C94000080E185B968EC70E080E090E00C
:100140000E942F0380E385B910927B0110927A01FF
:10015000089518B815B817B814B883EE90E00E9447
:10016000E80380E00E94F6038337B9F788E384B997
:100170000E949A0083E087B988ED90E00C94E80330
:10018000826088B98CE090E0FC013197F1F728B1EA
:10019000217028B90197F1F718B8089582E088B95D
:1001A000ECE0F0E0CF010197F1F786B118B8319794
:1001B000F1F7817008951F93CF93DF93D0E0C0E0F3
:1001C00080E00E94C00080E00E94C00081E00E94A8
:1001D000C00080E00E94C00080E00E94C00080E07B
:1001E0000E94C00082E087B98CE090E00197F1F7AF
:1001F0000E94CE001EE00E94CE0020E4829FC0013B
:100200001124D82BD695C7951150A9F70E94CE007E
:1002100083E087B9CE01DF91CF911F9108951F939D
:10022000CF93DF93EC0180E00E94C00081E00E9448
:10023000C00080E00E94C00080E00E94C00080E01A
:100240000E94C00080E00E94C0008CE090E0019716
:10025000F1F780E00E94C0001EE08C2F81700E94A8
:10026000C000D695C7951150C1F780E00E94C0002C
:100270008CE090E00197F1F7DF91CF911F91089505
:1002800080E00E94C00080E00E94C00080E00E94E8
:10029000C00081E00E94C00080E00E94C00080E0B9
:1002A0000E94C0006AE070E080E090E00C942F03B0
:1002B00081E00E94C00080E00E94C00080E00E94B7
:1002C000C00081E00E94C00080E00E94C00080E089
:1002D0000E94C00064E670E080E090E00E942F037E
:1002E0008AEB90E00C94E80380E00E94C00081E07B
:1002F0000E94C00081E00E94C00080E00E94C00017
:1003000080E00E94C00080E00E94C0008CE090E08D
:100310000197F1F780917A0190917B01019690937A
:100320007B0180937A0108951F93CF93DF93CDB71C
:10033000DEB761970FB6F894DEBF0FBECDBF182FA2
:1003400081E1E0E0F1E0DE01119601900D928A95E5
:10035000E1F7E12FF0E084E0F595E7958A95E1F784
:1003600081E090E08C0F9D1FE80FF91F80810E94B3
:10037000C003E12FEF7081E090E08C0F9D1F8E0F86
:10038000911DFC01808161960FB6F894DEBF0FBE0F
:10039000CDBFDF91CF911F910C94C003CF93C82F95
:1003A000892F0E9494018C2FCF910C949401CF93AC
:1003B00080E00E94C00080E00E94C00080E00E94B7
:1003C000C00080E00E94C00080E00E94C00080E089
:1003D0000E94C0008CE090E00197F1F7C0E180E05E
:1003E0000E94C000C150D9F78CE090E00197F1F76E
:1003F00080E090E290937B0180937A01CF91089501
:10040000DF92EF92FF920F931F93CF93DF93082F0A
:100410008AE30E94C003802F0E94940180917A0198
:1004200090917B01C82FCC0FC00F9C01220F232F6E
:10043000221F330B3195C20FC195880F991F0E945F
:10044000CE0181E191E00E94C70310E01595079568
:10045000D12CD0E0D0161106B4F40E94DB007C0150
:100460008FEFE8168FE3F80609F4DF5F8F2D8E0D0E
:10047000C81B8E2D0E9494018F2D0E9494010E9412
:100480007401D394E7CF8C2F0E9494018FE191E007
:100490000E94C7038D2FDF91CF911F910F91FF9085
:1004A000EF90DF900895CF93DF93C0E8D0E080E134
:1004B0000E940002D80FD13410F4C150C1F70E943D
:1004C000D7010E9474010E9474010E9474010E946D
:1004D00074010E9474010E9474010E94740182E000
:1004E0000E94000284E191E0DF91CF910C94C70358
:1004F000CF92DF92EF92FF920F931F93CF938C01D5
:100500006C0184E0C80ED11CF12CE12CF801C191E2
:100510008F018C2F0E94C003C13408F0C75084E0C3
:10052000EE0CFF1C8A95E1F7CF70EC2A0C151D0527
:1005300069F7C701CF911F910F91FF90EF90DF9066
:10054000CF900895FC018081813408F08750829516
:10055000807F9181913408F097509F70892B089586
:100560001F93CF93DF93CAE4D1E01C2F105D80E08E
:100570000E94F60389938A3011F01C13F8CFDF91A3
:10058000CF911F910895EF92FF920F931F93CF93F6
:10059000DF9385EA90E00E94E8038FE191E00E94FA
:1005A000C7030E94B00280915201813309F44DC00B
:1005B000803399F780914D01843311F40E94D70163
:1005C0008DE491E00E947802EC01D695C795809168
:1005D0007A0190917B018C179D0719F00E9474019C
:1005E000F6CF82E291E00E94C7038BE491E00E9483
:1005F000A202082F06958AE4E82E81E0F82E10E08A
:10060000101759F2C70109960E947802D82FC92FF6
:10061000CE010E940F010E9440010E94DB0024E0F5
:10062000E20EF11C8C179D0761F088E890E00E94B3
:10063000E803DF91CF911F910F91FF90EF900C9401
:10064000A9000E9474011F5FDBCF80E890E0DF917A
:10065000CF911F910F91FF90EF900C94E803462FDC
:10066000572FBC0140937F0150938001609381011B
:100670007093820181E080937E01E0917C01F09192
:100680007D0180917E01882321F03097D1F3099577
:10069000F4CF089590937D0180937C0189EF87BD0D
:1006A00082E084BD93E095BD80936E0008951F9213
:1006B0001FB61F9211248F939F93AF93BF93809186
:1006C000830190918401019690938401809383012A
:1006D00080917E01882309F180917F0190918001B2
:1006E000A0918101B09182010197A109B109809384
:1006F0007F0190938001A0938101B093820180914A
:100700007F0190918001A0918101B09182010097B9
:10071000A105B10511F410927E01BF91AF919F9197
:100720008F911F901FBE1F901895CF93DF9300D01D
:1007300000D0CDB7DEB769837A838B839C8360E872
:1007400074E88EE190E029813A814B815C810E94BE
:10075000790421503109410951095695479537953A
:1007600027952093C40086E08093C20088E9809397
:10077000C1000F900F900F900F90DF91CF910895CF
:100780009091C00095FFFCCF8093C6000895CF9351
:10079000DF93EC018991882321F00E94C003CE01F0
:1007A000F8CFDF91CF9108950F931F93CF93DF93ED
:1007B000EC018C01060F171FC017D10721F089919A
:1007C0000E94C003F9CFDF91CF911F910F9108953F
:1007D000CF93DF93EC01FE0184912196882319F0D9
:1007E0000E94C003F8CFDF91CF910895882339F09C
:1007F0008091860190918501891B8F730895909156
:100800008601809185019817D1F3E0918501F0E090
:10081000E957FE4F8081909185019F5F9F73909370
:10082000850108958F938FB78F93EF93FF938091F6
:10083000C600E0918601F0E0E957FE4F8083809189
:1008400086018F5F8F7380938601FF91EF918F9167
:100850008FBF8F91189590E080E00E944A0360E07E
:1008600072EC81E090E00E9495031092B00010922B
:10087000B1001092700083E08093B30082E4809313
:10088000B00081E08093B10078940E94A90080E0DC
:100890000E94F603893611F16CF4833619F185361E
:1008A000A1F08235A1F788E790E00E94E8030E945A
:1008B0009A00EDCF823761F0873769F0813739F7D9
:1008C00088E690E00E94E803E0CF0E945801DFCF65
:1008D0000E945302DCCF0E94C302D9CF82E00E9463
:1008E0000002D5CF0E94D70185E291E00E94C703A4
:1008F000CECFA1E21A2EAA1BBB1BFD010DC0AA1F61
:10090000BB1FEE1FFF1FA217B307E407F50720F078
:10091000A21BB30BE40BF50B661F771F881F991FF3
:100920001A9469F760957095809590959B01AC013C
:0A093000BD01CF010895F894FFCF38
:10093A00303132333435363738394142434445460B
:10094A00003030003A303030303030303146460DE9
:10095A000A003A2000436F6E6669677572617469AE
:10096A006F6E206D656D6F72792073656C65637447
:06097A0065640D0A000097
:00000001FF
