:100000000C947D000C949A000C949A000C949A0025
:100010000C949A000C949A000C949A000C949A00F8
:100020000C949A000C949A000C949A000C949A00E8
:100030000C949A000C949A000C940F010C949A0062
:100040000C949A000C949A000C945A080C949A0000
:100050000C949A000C949A000C949A000C949A00B8
:100060000C949A000C949A000D0A4C6F6F703A0D24
:100070000A00454E4332384A3630206E6F7420668F
:100080006F756E64210D0A005E7E7E313233343529
:10009000363738390D0A000D0A4E657420737461C5
:1000A000727465640D0A000D0A557365722D4167FF
:1000B000656E743A204D6F7A696C6C612F352E3005
:1000C0000D0A0D0A0020485454502F312E300D0ACD
:1000D000486F73743A2000474554202F6C6F672E89
:1000E0007068703F7661723D0045000082000040FC
:1000F0000020000108000604000111241FBECFEFFC
:10010000D8E0DEBFCDBF11E0A0E0B1E0E8E0F2E171
:1001100002C005900D92A036B107D9F723E0A0E602
:10012000B1E001C01D92A035B207E1F70E9473084B
:100130000C9402090C9400000E944907F894209145
:100140006B0130916C018091620190916301822773
:1001500093273093630120936201789492FD0C946D
:100160003A070895CF93DF93EC01FC0171978081EA
:10017000803521F567ED70E0CE010E94E90860E16D
:1001800071E0CE010E94F70865EC70E0CE010E949C
:10019000DE0868E471E0CE010E94F70867EA70E0CB
:1001A000CE010E94DE08FE0101900020E9F73197A0
:1001B000CF018C1B9D0BDF91CF91089590E080E0E3
:1001C000FACF0E941C0881E0809360010895462FB9
:1001D000572FBC01409367015093680160936901F8
:1001E00070936A0181E080936601E0916401F0916F
:1001F000650180916601882321F03097D1F309953C
:10020000F4CF0895909365018093640189EF87BDD1
:1002100082E084BD93E095BD80936E0008951F92A7
:100220001FB61F9211248F939F93AF93BF9380911A
:100230006B0190916C01019690936C0180936B011E
:1002400080916601882309F180916701909168018E
:10025000A0916901B0916A010197A109B109809348
:10026000670190936801A0936901B0936A0180913E
:10027000670190916801A0916901B0916A010097AE
:10028000A105B10511F410926601BF91AF919F9144
:100290008F911F901FBE1F9018952A9808952A9A33
:1002A00008950DB407FEFDCF0895CF93DF93D82FA7
:1002B000C62F0E944D018C2F8F718D2B8EBD0E94F9
:1002C00051011EBC0E945101C7FF03C01EBC0E9409
:1002D00051010E944F018EB5DF91CF9108951F9378
:1002E000CF93DF93182FC62FD42F0E944D01CF71CB
:1002F000C12BCEBD0E945101DEBD0E945101DF9194
:10030000CF911F910C944F010F931F93CF93DF93C5
:100310008C01EB010E944D018AE38EBD0E945101C8
:100320000C0F1D1FC017D10731F01EBC0E945101D8
:100330008EB58993F7CF1882DF91CF911F910F91DE
:100340000C944F010F931F93CF93DF938C01EB011C
:100350000E944D018AE78EBD0E9451010C0F1D1FA6
:10036000C017D10729F089918EBD0E945101F8CFA5
:10037000DF91CF911F910F910C944F01CF93DF9399
:10038000C82FD82FD07680916F018D1799F043E058
:100390006FE180EA0E946F014C2F50E085E0559597
:1003A00047958A95E1F743706FE180E80E946F01FD
:1003B000D0936F01DF91CF910895CF93C82F0E9402
:1003C000BE016C2F80E0CF910C945501CF93DF9349
:1003D000C82FD62F0E94BE014D2F6C2F80E4DF91D5
:1003E000CF910C946F01682F84ED0E94E60161E0CB
:1003F00082ED0E94E60180E58A95F1F78AEE0E947F
:10040000DD0180FDFBCF60E082ED0E94E60189ED19
:100410000E94DD0190E00895CF93DF93D62FC72F80
:10042000682F84ED0E94E6016D2F86ED0E94E601A3
:100430006C2F87ED0E94E6018AEE0E94DD0180FFAD
:1004400004C080E58A95F1F7F7CFDF91CF91089549
:10045000CF93DF93229A0E944F0184B1886284B9BE
:1004600024982B982D9880E58CBD8DB581608DBD2D
:100470004FEF60E08FEF0E946F018DEC8A95F1F7EE
:1004800010926E0110926D0160E088E00E94E6011A
:1004900060E089E00E94E60160E08CE00E94E601F5
:1004A00060E08DE00E94E6016EEF8AE00E94E601C6
:1004B00069E18BE00E94E6016FEF84E00E94E601B3
:1004C00069E185E00E94E6016FEF86E00E94E601A7
:1004D0006FE187E00E94E60160EB88E30E94E6019D
:1004E0006FE388E20E94E60160E389E20E94E60190
:1004F00069EF80E30E94E60167EF81E30E94E60175
:100500006DE080EC0E94E60160E081EC0E94E60173
:1005100042E362EC80E80E946F0162E186EC0E9497
:10052000E6016CE087EC0E94E60162E184EC0E9447
:10053000E6016CED8AEC0E94E60165E08BEC0E941E
:10054000E601C9E5D1E0688184EE0E94E601698197
:1005500085EE0E94E6016A8182EE0E94E6016B81CF
:1005600083EE0E94E6016C8180EE0E94E6016D81BF
:1005700081EE0E94E60160E071E080E10E940C02E1
:100580008FE10E94BE0140EC6BE180E80E946F01A8
:1005900044E06FE180E80E946F0162E085E70E941D
:1005A000E601C2E38C2F8A95F1F766E774E084E1F7
:1005B0000E940C02CA95F1F782E7DF91CF910C946B
:1005C000DD018F929F92AF92BF92CF92DF92EF9216
:1005D000FF920F931F93CF93DF937C01962E072FEB
:1005E00089E30E94DD01D12CC12C882309F45FC06E
:1005F00060916D01C0916E0180E00E94E6016C2F58
:1006000081E00E94E60160E08AE30E945501C82F64
:1006100060E08AE30E945501D82FD0936E01C09309
:100620006D0160E08AE30E945501182F60E08AE3C3
:100630000E945501882E60E08AE30E945501A82E91
:10064000B12C60E08AE30E945501650120E8C222D6
:10065000DD24A7FE10C0982D812F0497670121E0AB
:10066000C21AD1088C159D0508F46C01692D702FF4
:10067000C6010E9484016C2F8CE00E94E6016D2F60
:100680008DE00E94E6018E01015011090F3F89E1C2
:100690001807D8F06EEF8CE00E94E60169E18DE06A
:1006A0000E94E60140E46EE180E80E946F01C6010D
:1006B000DF91CF911F910F91FF90EF90DF90CF903E
:1006C000BF90AF909F908F9008956C2F61508CE0F9
:1006D0000E94E601612FE3CF0F931F93CF93DF9327
:1006E000EC018B016FE180E00E94550183FF10C097
:1006F0008CE10E94DD0181FFF5CF40E86FE180E8E9
:100700000E946F0140E86FE180EA0E946F01EACF2A
:100710006FEF82E00E94E60169E183E00E94E6015A
:100720006C2F615086E00E94E601CE018150964E0A
:10073000692F87E00E94E60140E060E08AE70E94BE
:100740006F01B801CE010E94A20148E06FE180E88C
:10075000DF91CF911F910F910C946F0181E10E9465
:10076000F301969587959695879581700895CF9317
:10077000DF93FC019B014130C1F4CB010897B0E04D
:10078000A0E04196A11DB11DA901EF014230510524
:10079000C8F069917991762767277627860F971F8A
:1007A000A11DB11D42505109F1CF80E090E0DC0164
:1007B000423051F7CB010897B0E0A0E00696A11DAA
:1007C000B11DE2CFA9014E7FE40FF51F24173507B5
:1007D00061F0408150E070E060E0762F652F542F8B
:1007E0004427840F951FA61FB71FAD0166277727E3
:1007F000411551056105710519F0AA27BB27F1CFF5
:1008000080959095DF91CF9108958997B0F0809170
:100810007D01883091F480917E01863071F4A7E9E2
:10082000B1E0ECE0F1E084E08E0F2D91919129137D
:1008300004C08E13FACF81E0089580E008958A976E
:10084000D0F080917D018830B1F480917E018111DA
:1008500012C090917F01953479F4AFE8B1E0ECE0FB
:10086000F1E094E09E0F3D912191321305C09E135B
:10087000FACF81E0089580E0089586E0E7E7F1E0AF
:10088000A1E7B1E001900D928A95E1F786E0E9E5F4
:10089000F1E0A7E7B1E001900D928A95E1F70895A4
:1008A000CF93DF93C1E7D1E0188E198E80E48C8B53
:1008B0001D8A8E8B40E064E170E08FE791E00E943A
:1008C000B703982789279827998F888FDF91CF9131
:1008D000089584E0EBE8F1E0AFE8B1E001900D921B
:1008E0008A95E1F780910C0190910D01A0910E0184
:1008F000B0910F0180938B0190938C01A0938D0197
:10090000B0938E010C9450040F931F93CF93DF93F9
:10091000EC01809170018F5F8093700186E0E4E0CC
:10092000F3E0A1E7B1E001900D928A95E1F786E04E
:10093000E9E5F1E0A7E7B1E001900D928A95E1F7D2
:1009400088E080937D0110927E0149E050E069EEDD
:1009500070E08FE791E00E94D50881E180938801E3
:100960008091040190910501A0910601B0910701C9
:1009700080938F0190939001A0939101B093920185
:1009800080910C0190910D01A0910E01B0910F0189
:1009900080938B0190938C01A0938D01B0938E0175
:1009A0001092950185E38093960180EE80939301E8
:1009B00030917001309394011092990110929A0134
:1009C000EBE9F1E08CE0DF011D928A95E9F7E7EAB7
:1009D000F1E080E029912E3241F0222331F08F5F47
:1009E000DF01A80FB11D2C93F5CF808390E0019615
:1009F000E80FF91F2111EDCF1082118281E082836F
:100A000013828483EF01CC56D1400C2F0A520093FD
:100A10009B0130939C0180939D018093A00110E085
:100A2000C8014C96909381018C2F8E508093820147
:100A30000E945004C801089690939701C252C09337
:100A40009801B801605F7F4F41E08BE891E00E9420
:100A5000B70398278927982790939A018093990143
:100A600061E771E0C8018A96DF91CF911F910F91E4
:100A70000C946C03E0919B01F0E0E556FE4F8F581B
:100A80009E4F2081207CD1F032969F01225F3F4F04
:100A90008217930710F1218531813130C1F4243060
:100AA000B1F482859385A485B58580930A039093DC
:100AB0000B03A0930C03B0930D0308953196E81730
:100AC000F90718F740814111F9CF3196DECF30E0B8
:100AD000265F3F4FE20FF31FD4CF0895FF920F938D
:100AE0001F93CF93DF938C0146E050E06FEF70E0EF
:100AF00081E791E00E94F00886E0E9E5F1E0A7E7F0
:100B0000B1E001900D928A95E1F7C1E7D1E088E06C
:100B10008C8786E0F82EFD861C8A81E08D8B48E06C
:100B200050E062EF70E08FE791E00E94D508E1E9C4
:100B3000F1E0DF011D92FA94E9F786E0E9E5F1E0E2
:100B4000A7E8B1E001900D928A95E1F784E0F80101
:100B5000A7E9B1E001900D928A95E1F780910C012F
:100B600090910D01A0910E01B0910F018C8F9D8F7E
:100B7000AE8FBF8FBE018AE290E0DF91CF911F91CF
:100B80000F91FF900C946C03CF93DF930E943D0470
:100B9000C1E7D1E01C8A82E08D8B86E0E7E8F1E0D6
:100BA000A1E9B1E001900D928A95E1F786E0E9E5CF
:100BB000F1E0A7E8B1E001900D928A95E1F784E0B9
:100BC000EDE8F1E0A7E9B1E001900D928A95E1F737
:100BD00080910C0190910D01A0910E01B0910F0137
:100BE0008C8F9D8FAE8FBF8FBE018AE290E0DF9128
:100BF000CF910C946C03CF93DF93D82FC92F0E9411
:100C00003D040E9469041092930120919501283FB0
:100C100028F0809196018F5F80939601285F209342
:100C2000950161E771E08D2F9C2FDF91CF910C949E
:100C30006C03DF92EF92FF920F931F93CF93DF939A
:100C40007C018B0186E0E4E0F3E0A1E7B1E00190F4
:100C50000D928A95E1F786E0E9E5F1E0A7E7B1E0DA
:100C600001900D928A95E1F7C1E7D1E088E0D82E96
:100C7000DC861D8649E050E069EE70E08FE791E088
:100C80000E94D50886E08F8B8CE2898B84E0F70187
:100C9000AFE8B1E001900D928A95E1F780910C01E7
:100CA00090910D01A0910E01B0910F018A8F9B8F41
:100CB000AC8FBD8F0E9450041027012710271DA361
:100CC0000CA38BE08AA381E28BA3E7E9F1E0DF01CB
:100CD0001D92DA94E9F780915F0188A78D5F809378
:100CE0005F0180E68EA782E08FA793E098AB19AAF8
:100CF0001AAA1BAA1CAA1DAA8EAB94E09FAB88AFB0
:100D000086E289AF42E060E270E08BE891E00E9409
:100D1000B7039827892798279BAB8AABBE018AE344
:100D200090E0DF91CF911F910F91FF90EF90DF90B6
:100D30000C946C039C0184E0815080F0E82FF0E07B
:100D4000DF01A956BE4F9C91290F311DE556FE4F7C
:100D5000908120839C93232F3327EECF0E943D0464
:100D60001092810188E2809382010E94690480913F
:100D700093018093950180919401809396018BE07B
:100D80008093930181E28093940180E580939F0199
:100D900083E08093A1011092A2011092A30110920E
:100DA000A4011092A5011092A60142E06CE170E04E
:100DB0008BE891E00E94B7039827892798279093A2
:100DC000A4018093A30161E771E086E390E00C94B5
:100DD0006C030F931F93CF93DF93EC0101E711E0B6
:100DE000F801108A885D818B0E945004F80112AAD4
:100DF00013AA14AA15AABE01645E7F4F42E08BE8D5
:100E000091E00E94B703982789279827F80193ABB0
:100E100082ABB801CE01C696DF91CF911F910F91A1
:100E20000C946C038091810190918201982789270D
:100E300098278897089520910303222381F0209119
:100E40000203222361F020910A03211102C00C94B5
:100E5000840460E570E08AE093E00C94190608953C
:100E600020910303222329F02091020321110C94E5
:100E7000190608950E94AE0380930303882341F06E
:100E800080910203811104C088E091E00C946E050A
:100E900008951F93CF93DF9361E771E080E991E0BC
:100EA0000E94E102EC010097D9F00E94050488231A
:100EB000D9F080918601813029F4DF91CF911F9183
:100EC0000C94C405823061F486E0E7E8F1E0A4E028
:100ED000B3E001900D928A95E1F781E080930203DF
:100EE000DF91CF911F910895CE010E941F048823A6
:100EF000B9F380918801813051F480919301883059
:100F000079F7CE01DF91CF911F910C94FB058131D0
:100F1000A1F480919401853319F780919E018F701F
:100F2000F9F6CE010E943A0560E570E08AE093E0B0
:100F3000DF91CF911F910C941906863089F610919C
:100F4000A00114FFCDCF12FDCBCF11FF16C080E161
:100F50008093A00181E090E00E949A0687EA91E0E8
:100F60000E94B200009709F4BBCF28E12093A001B2
:100F7000DF91CF911F910C94E9060E941207EC01BA
:100F800013FF10C0009771F0BC0187EA91E00E9446
:100F9000E10089E18093A001CE01DF91CF911F9103
:100FA0000C949A0610FF9CCFCD2B09F099CF89E1C4
:100FB0008093A00181E090E0F0CFCF93DF9300D049
:100FC00000D0CDB7DEB769837A838B839C8360E8DA
:100FD00074E88EE190E029813A814B815C810E9426
:100FE000B308215031094109510956954795379564
:100FF00027952093C40086E08093C20088E98093FF
:10100000C1000F900F900F900F90DF91CF91089536
:101010009091C00095FFFCCF8093C6000895CF93B8
:10102000DF93EC018991882321F00E940808CE010A
:10103000F8CFDF91CF9108950F931F93CF93DF9354
:10104000EC018C01060F171FC017D10721F0899101
:101050000E940808F9CFDF91CF911F910F91089559
:10106000CF93DF93EC01FE0184912196882319F040
:101070000E940808F8CFDF91CF910895882339F0B6
:1010800080910F0390910E03891B8F7308959091A7
:101090000F0380910E039817D1F3E0910E03F0E057
:1010A000E05FFC4F808190910E039F5F9F73909350
:1010B0000E0308958F938FB78F93EF93FF938091D3
:1010C000C600E0910F03F0E0E05FFC4F8083809169
:1010D0000F038F5F8F7380930F03FF91EF918F91B9
:1010E0008FBF8F91189560E072EC81E090E00E94D4
:1010F000DD07789487E990E00E94300888E890E066
:101100000E9430080E942802811104C082E790E00A
:101110000E9430088CE990E00E94020168EB7BE0BD
:1011200080E090E00E94E70088E690E00E943008AE
:1011300063E670E080E091E00E94300768EE73E0C3
:1011400080E090E00E94E7001092600188E491E066
:101150000E941B0768E873E180E090E00E94E700CE
:1011600010926101E1CFA1E21A2EAA1BBB1BFD0167
:101170000DC0AA1FBB1FEE1FFF1FA217B307E40776
:10118000F50720F0A21BB30BE40BF50B661F771FCE
:10119000881F991F1A9469F76095709580959095AE
:1011A0009B01AC01BD01CF010895FB01DC0102C030
:1011B00005900D9241505040D8F70895FB01DC0195
:1011C0000D900020E9F7119705900D920020E1F7AE
:1011D0000895FB01DC0105900D920020E1F70895D0
:1011E000DC0101C06D9341505040E0F70895FB01D0
:1011F000DC010D900020E9F7119701900D9200207D
:08120000E1F70895F894FFCF17
:10120800C0A80109D45E607BC0A80101C0A8016F15
:1012180035332E37352B35322E35302B35302E38A9
:10122800382B33312E39342B33302E38382B333397
:101238002E35362B32352E30302B30362E31322BA0
:1012480032342E33312B30007966623739303569C4
:101258002E626765742E7275000001020304050A88
:00000001FF
